:400000000010002011000000910D0000910D000010B500F0DDFEC04670B5204C23688022D20213432360182001F010FB22681C4B134023601B4A1C4B1A6010221B4B1A60EF
:4000400020321B4B1A60103A1A4B1A6011231A4A13601A4A13601A4A13601A4A13601A4A136082221206194B1A6000252560184A184B1A60184A194B1A60194A194B1A60BA
:40008000194A1A4B1A601A49092001F085FA092001F06CFA174B1D6070BDC04600010B40FFFFFBFF0600008004010B40080202400C0202401C02024020020240240202408E
:4000C000280202402C0202403002024008010B400E000080000002401700008040000240CF000080800002406F170080040002405D1800000C020B4010B572B601223C4BB1
:400100001A7000240FE03B486200131959000B00411889881A5AC31858880004104300F015FE0134E4B2012CEDD932490C313248543000F0F1FD314A314B1A60314A324BFF
:400140001A60324A324B1A60EE22324B1A6099231B04314A13603149314A1160314A13603149324A1160324A1360324A1360324A324B1A600522324B1A600221314B196080
:40018000314803783732934314221343DBB203702E4A107816230343DBB21370AF222C4B1A602C4A2C4B1A6008222C4B1A6018322B4B1A6022322B4B1A602B4A2B4B1A60CA
:4001C0002B4B1960C02212042A4B1A6082222A4B1A602A4A2A4B1A6003222A4B1A602132294B1A60FFF718FF00F0C6FD10BDC0461C700F40DC3700005C39000003339930C9
:4002000000000140600000030400014030EE00300C0001401000014000500F4000004B4008500F4010500F400000084518500F4020500F4030500F400000514038500F406F
:400240002000004000800F4001700F4000700F4000000440961DDB00080004400C00044018000440000104400600180008010440180104400802044000030440B00DC300E4
:4002800008030440000404400804044010B5064C2378002B07D1054B002B02D0044800E000BF0123237010BDB00100200000000040360000084B10B5002B03D007490848E9
:4002C00000E000BF07480368002B00D110BD064B002BFBD09847F9E700000000B401002040360000C00000200000000010B5054A1368013313600122034B1A7001F050FC3D
:4003000010BDC046CC0100203002002010B5002001F06AFD024B988001F07CFC10BDC046CC01002010B584B062B600F069FE01F09DF800F091FD01F043FB01F021FC01F046
:40034000AFFB46490A78487800020300134388780004184300F0CCFA01F02CFD01F03AFD3F4801F049FC3F4801F082FC03E00021F62000F065F93C4B1B78002BF7D0032204
:400380003A49684602F026FD009800F067FCFA20800001F039F900F00DFE002000F0BAFD0BE000F0EDFB324B1A68324C3249200002F022FD200000F067F82D4B186807280B
:4003C000EFDD012000F0A6FD294B9A882B49294802F012FD2A4C0123237001AA02A903A800F084F9019A0299039800F0F1F92378002BE9D006282CD88000224B1B589F46C5
:4004000000236A4613705370937022E000236A4613705370013393701BE000236A461370012269464A708B7013E003220F490431684602F0CFFC0CE001236A461370002300
:400440005370937005E0032208490831684602F0C1FC009800F002FCB6E7C04620020020ED0200000D030000D401002060360000CC0100206C0200206C3600007C36000001
:40048000D50100204436000010B501F063F810BD70B504000D0064220021292000F0E2FE802040420443E0B2642100F069FF0B4B1860002802D00A48FFF7E6FFFF202840A4
:4004C000642100F05DFF054B1860002802D00448FFF7DAFF322000F027FF70BDF4020020C436000010B582B0040064220021292000F0B8FE802040420443E0B2642100F0A8
:400500003FFF114B1860002802D01048FFF7BCFF322000F009FF64220121292000F0A2FE64226B46D91D002000F04EFF064B1860002802D00548FFF7A7FF322000F0F4FE71
:400540006B46D87902B010BDF4020020D436000010B582B0040064220021292000F082FE802040420443E0B2642100F009FF322000F0DAFE64220121292000F073FE642215
:400580006B46D91D002000F01FFF104B1860002802D00F48FFF778FF64226B46991D012000F012FF094B1860002802D00848FFF76BFF322000F0B8FE6B4698796B460733AB
:4005C0001B780002184302B010BDC046F4020020E036000010B501210020FFF759FF032001F012F803210020FFF752FF074B1A7880235B009B1A5A00D3189800052101F0D1
:4006000057FE013001F000F810BDC046F002002010B5040001000120FFF73AFF014B1C7010BDC046F002002010B5040001000F20FFF72EFF014B1C7010BDC046F1020020B5
:4006400070B505000C001220FFF74CFF4D2808D0442806D0102804D00D48FFF715FF002014E00C4E02000C49300002F0C5FB3000FFF70AFF0122094B1A702800FFF7C8FF1B
:400680002000FFF7D1FFFFF7A5FF012070BDC046F03600006C02002000370000D4010020F8B506000D0014001F001420FFF750FF38801620FFF74CFF30801820FFF748FFC6
:4006C00028801A20FFF744FF2080074B1A7880235B009B1A5A00D3189800052101F0E8FD013000F091FFF8BDF0020020F0B585B006000F00150002AB1A00023203A9180094
:400700000630FFF7CDFF02AB1C88002C04D100232B603B60336035E002ABD88801F0CEFF0190200001F0CAFF041C011C019801F0ABFE02F0B1FA0022134B01F0FDFF02F0DC
:4007400075FA306003AB188801F0B8FF211C01F09BFE02F0A1FA00220B4B01F0EDFF02F065FA386002AB588801F0A8FF211C01F08BFE02F091FA0022034B01F0DDFF02F06A
:4007800055FA286005B0F0BD00E06F4010B50468944211DC44689C4210DC8068029CA0420EDC086882420DDC4A6893420CDC8B689C420BDD00200AE0002008E0002006E058
:4007C000002004E0002002E0002000E0012010BDF0B583B004000D0016003A4F00920B0002003949380002F007FB3800FFF74CFE364901234B70043100962B0022003448C6
:40080000FFF7C4FF002804D03248FFF73DFE012056E000962B0022002C4910312C480C30FFF7B4FF002804D02B48FFF72DFE042046E000962B00220024491C3124481830E4
:40084000FFF7A4FF002804D02448FFF71DFE052036E000962B0022001C4928311C482430FFF794FF002804D01D48FFF70DFE032026E000962B00220014493431144830305D
:40088000FFF784FF002804D01648FFF7FDFD062016E000962B0022000C4940310C483C30FFF774FF002804D00F48FFF7EDFD022006E00E48FFF7E8FD0022044B5A700720B9
:4008C00003B0F0BD6C02002004370000D4010020C4000020183700001C370000243700002C370000343700003C3700004437000030B583B001AD0190C0B2FF24201A01F026
:400900000FF86878201A01F0EBF8A878201A01F077F803B030BDC04610B5062821D88000124B1B589F46124B986CFFF7E1FF1CE00F4BD86CFFF7DCFF17E00D4B186DFFF7D5
:40094000D7FF12E00A4B586DFFF7D2FF0DE0084B986DFFF7CDFF08E0054BD86DFFF7C8FF03E0044BD86CFFF7C3FF10BD8C360000C4000020D401002010B500220CE0930091
:400980000949C9180C6E19588C4209DC074CE3181B6D994206DC0132022AF0D9012002E0002000E0002010BDC4000020D4010020F0B55F464E464546E0B488B007000E0098
:4009C000150003935C235B4AD35C002B00D1AAE0012000F09FFA002D02D06423994601E00A239946544C4A465449200002F004FA2000FFF749FD002D03D10121039800F090
:400A000049F902954C4C2A004D49200002F0F4F92000FFF739FD002398469B463AE007AA06A905A8FFF762FE029A4649424802F0E3F94148FFF728FD002D04D105A8FFF70F
:400A40009BFF002824D101239C46E0444346033B012B01D9002D1DD03B48FFF715FD002210E0930005A95858F9180C68A04200DA0860910005A80958F3181868814200DDAD
:400A800019600132022AECD902239C46E34401E000239846CB45C2D300215C23254AD154FA20C00000F0B0FD002D03D10021039800F0F0F8002000F02DFA002D0CD1002241
:400AC00018E09300F818016805390160F318196805311960013200E00022022AF1D90BE09300F818016802390160F3181968023119600132022AF3D97B683A680E4CB968F7
:400B000000911249200002F077F92000FFF7BCFC73683268B16800910D49200002F06CF92000FFF7B1FC002008B01CBC90469946A346F0BDD40100206C0200204C370000C9
:400B4000643700007437000078370000803700009837000070B504000D000548FFF794FC0023012229002000FFF722FF70BDC046B037000010B513000022FFF719FF10BD5C
:400B800010B5002806D11E4950311E486030FFF7E1FF33E0062831D883001B4AD3589F460200174904311748FFF7E4FF26E002001349103113480C30FFF7DCFF1EE002009F
:400BC0000F491C310F481830FFF7D4FF16E002000B4940310B483C30FFF7CCFF0EE002000749283107482430FFF7C4FF06E002000349343103483030FFF7BCFF002010BDD4
:400C0000D4010020C4000020A836000030B583B0050001AC019100F02FF9280000F038F9280000F041F9227860784000A3789B0010431843C0B200F043F9012000F016F91A
:400C400000F044F90128FBD1002000F00FF900F03DF90028FBD103B030BDC04600B583B0010001900120FFF7D1FFBE2000F0CCFC00F032F9064800F0C7FC01990020FFF7B7
:400C8000C5FF0A2000F0C0FC00F094F903B000BD2602000010B582B00C0006282AD880001B4B1B589F4601AB00221A705A709A7020E001AB00221A705A7001329A7019E090
:400CC00001AB00221A70012159709A7012E00322104901A802F07EF80CE001AB01221A7000225A709A7005E003220A49043101A802F070F8002C04D001990120FFF786FF20
:400D000003E001990020FFF781FF02B010BDC046B8370000D4370000F0B50025002711E0BB00C658F3B2FF22964308E06A008A181478A419527822700135013BDBB2002B04
:400D4000F4D10137072FEBD9F0BDC04610B50A00002102F048F810BD064B1B68002803D080221206134301E05B005B08014A13607047C04680031A4010B58022D202034B7B
:400D80001A600120FFF7E8FF10BDC04600031A4010B501F0F3FF03680C2B00D1FEE7FEE710B50300084A1068C318084A9A1A802A02DC054A136005E001F0E0FF0C230360A2
:400DC0000120404210BDC046300100203003002070B50F4E0F4D13E029686B68AC68002202E001C901C30432A242FAD1E868002202E0002102C304328242FAD11035013E96
:400E0000002EE9D101F0C0FFFFF78CFAFEE7C046010000001C3B000010B500230AE0032B03D89A000949505800E009489900094A885001332F2BF2D9FFF75EF98022D205D8
:400E4000116801230B43136010BDC04600000000910D000000000020034A1368802109060B4313607047C04604000240014B18707047C04670000F4004490A68D2B2202371
:400E80009A434001184010430860704700030440044A1368DBB201218B430840184310607047C0460001044004490A687F231A40C301D8B2104308607047C04600020440E1
:400EC000014B18707047C04671000F40014B1878C0B2704761000F4010B500F0ABFF044A136801218B43136000F0A8FF10BDC046000005400004000C014B18607047C04621
:400F0000080105400004000C014B18607047C046140105400004000C014B18607047C0460C01054070B504000D0000F083FFAC40024B1C6000F082FF70BDC0460800054047
:400F400010B500F077FF064A116801230B43136000F074FF18210120FFF7E4FF10BDC04600000540014B18607047C0463801054010B50D4C8423DB04236023682360002096
:400F8000FFF7B8FF236823600C22084B1A600220FFF7E8FF3122064B1A600420FFF7B2FF0020FFF7B7FF10BD00010540240105402801054010B5064B1B78002B04D1FFF73D
:400FC000D7FF0122024B1A70FFF7BAFF10BDC0463102002010B50A2000F0C8FA10BDC04610B500F01DF810BD10B5044A1368802109060B431360FFF7EDFF10BD000006404D
:4010000010B5064B1B78002B04D1FFF7E9FF0122024B1A70FFF7E8FF10BDC0463402002010B51B4A11680C230B4313600024194B1C60194A194B1A60194B1A4A13601A4AB2
:4010400014601A4A14601A4A13601A4B1C600A2000F096FA03210A2000F0B0FA16490A2000F09AFA154B1C60154B1C60154B1C60154B1C60154B1C60154B1C601022154B13
:401080001A70154B1C80154B1C60154B1C6010BD70000640000006407708008060000640070100800003064004030640100306400002064004020640451E0000C80E0640FA
:4010C000880E0640480F0640080F0640C80F0640880F0640F802002008030020180300200003002010B5144A13685B005B081360002312490B6012490B60124804681249DE
:401100002140016011490B6011490B601149124B19601249124B19601249134B19601349134B19601021134B19701368802109060B43136010BDC0460000064068000640D2
:401140006C00064060000640FF5CFFFF880F0640C80F0640F3070000800F0640ED0F0000C00F0640FF0F0000400F064017030000000F0640F802002010B504000368002B59
:4011800009D0012000F058FA2368013B2360002B03D0002003E0002001E08020000610BD10B5002839DBC023034208D00022284B1A601032274B1A70002310243DE0C307A8
:4011C0000FD5244B1B781B072BD5234B1B685B0001D5002300E0012310211E4A117001242BE0C30520D4830722D4C30605D51022184B1A70002300241FE0164B1B781B07FA
:4012000019D5144B1B78DB0701D5252200E02422104B1A70002300240FE00123802424060BE00123012408E001238024640004E00023022401E000230024012B02D1FFF70A
:4012400051FF02E0054A064B1A60200010BDC04668000640F80200206000064017030000000F064070B582B004000D001600244B1B78102B40D10A2000F082F9214B1B6802
:40128000DB0734D4FA239B005E43019600221E4B1A601E4A1E4B1A601E4A1F4B1A606400FF231C40002D03D12422154B1A7004E02522134B1A7001231C43184B1C6002220C
:4012C000174B1A60124B1C680823FF3320001840144B1B68C02423401843040001A8FFF74BFF2043EED0FFF75BFF040000E008240A2000F03BF900E00424200002B070BD15
:40130000F802002064000640080F064017030000000F0640ED0F0000C00F06404002064068000640400F064010B582B0104B1B789B061AD5FA239B00584301900D4B1B680D
:401340009B0601D5182200E010220B4B1A600B4B18681223FF331840040001A8FFF70CFF2043F4D0FFF71CFF00E0042002B010BDF80200206400064068000640000F064015
:4013800010B582B00D4B1B789B0613D5FA239B00594301910A4B18600A4B18680823FF331840040001A8FFF7E7FE2043F4D0FFF7F7FE00E0042002B010BDC046F802002048
:4013C00040020640000F0640F0B583B004000D00164B1B789B0626D5FA239B005A430192134B18680223FF3318400700114B1B6804261E4001A8FFF7BFFE38433300034364
:40140000EED0002E05D00C4B1B682B700B4A094B1A60FFF7C5FE002806D1002C04D10422074B1A6000E0042003B0F0BDF8020020000F0640C00F064040030640ED0F00003B
:401440006800064010B500F06FF810BD10B500F01DF810BD10B5044A1368802109060B431360FFF7EFFF10BD0000074010B5064B1B78002B04D1FFF7E9FF0122024B1A70C6
:40148000FFF7E8FF10BDC0463C020020134A144B1A600023134A13601349144A1160144A14490A6007201449086014490B6006381349086013490A60134A1360134A136089
:4014C000134A1360134A1360134A1360134A1360134A13601268134B1A8070470B000002000007404000074001000A004800074007000080000307400403074010030740C5
:40150000440007400002074004020740880E0740C80E0740480F0740080F0740C80F0740880F07403E020020064A1168064B0B40902109040B431360044B1A88044B1A609A
:401540007047C04600000140FFFF0FFF3E020020880F074070B50500002402E000F010FE0134285D0028F9D170BDC0461F2318401E3B8340014A13607047C04600E100E024
:401580001F2318401E3B8340014A13607047C04680E100E001BE704770B504000D001F2802D90020FFF7F6FF1034A40080239B059C4664442068256070BDC04670B50400C2
:4015C0000E00032902D90020FFF7E4FF1F2C02D90020FFF7DFFF03252540ED00063500F029FCA408A400074B9C46644421680323AB4099430B003100A9401943216000F065
:401600001DFC70BD00E400E010B5040006E0084B586800F005FC074B9C46644480231B029C42F4D8024B9868604300F0F9FB10BD340100200080FFFF10B5034B1B7B5843EF
:4016400000F0EEFB10BDC04634010020F0B557464E46C0B483B0040000F0ECFB0190E71E2D2F74D83F4B1B78DBB29C4208D83E4B1B78DBB29A463D4B1B78DBB2994631E04A
:401680003B4B1B78DBB29C4208D83A4B1B78DBB29A46394B1B78DBB2994623E0374B1B78DBB29C4208D8364B1B78DBB29A46354B1B78DBB2994615E0334B1B78DBB29C42EA
:4016C00008D8324B1B78DBB29A46314B1B78DBB2994607E02F4B1B78DBB29A462E4B1B78DBB299462D4BDE5D2F2E09D92A2C07D919222B4B1A60052000F092FB192503E023
:40170000274B1D683F231D40B54206D9234BDA5D234B1A60052000F083FB1F4B9C4664442378DBB21F4A13601F4B52461A601F4B4A461A600520FFF77FFFB5420AD2174B47
:40174000DA5D174B1A60052000F06AFB02E00020FFF720FF019800F071FB03B00CBC91469A46F0BDC0F1FF0FC1F1FF0FC2F1FF0FC3F1FF0FC4F1FF0FC5F1FF0FC6F1FF0FA3
:40178000C7F1FF0FC8F1FF0FC9F1FF0FCAF1FF0FCBF1FF0FCCF1FF0FCDF1FF0FD03900002CFF0B4028FF0B401CFF0B4020FF0B40034B1868C0231B02184000D0012070471B
:4017C00000010B4010B500F035FB044A1368C02109020B43136000F031FB10BD00010B4010B500F027FB08490A68084B1A408024E40122430A600A6813408022120213439D
:401800000B6000F01BFB10BD00010B40FF3FFFFF70B5050000F00EFB0400FFF7C9FF002803D0FFF7DDFF012100E0002108482840084A1568084B2B40184310601368012958
:4018400001D1FFF7BFFF200000F0F8FA70BDC0460404040010020B40FBFBFBFF10B5244B1B685B0715D5234B1B685B070ED5224BD969042001401F4C22688A432260DA6980
:401880008243DA611B69002B00D098470420FFF7BFFF174B1B685B0518D5164B1B685B0510D5154BD9698022D2001140114802688A430260D969114A0A40DA615B69002B2D
:4018C00000D098478020C000FFF7A2FF084B1B685B030CD5074B1B685B0304D5064B9B69002B00D098478020C002FFF791FF10BD10020B404801002040020020FFFBFFFF1D
:401900000004000C014B18607047C046880105400004000C014B18607047C046940105400004000C014B18607047C0468C01054070B504000D0000F07DFAAC40024B1C6028
:4019400000F07CFA70BDC0460800054010B500F071FA064A116804230B43136000F06EFA18210420FFF7E4FF10BDC04600000540014B18607047C046B801054010B50D4C6D
:401980008023DB042360236823600020FFF7B8FF236823600C22084B1A600120FFF7E8FF3122064B1A60FF20FFF7B2FF0020FFF7B7FF10BD80010540A4010540A801054025
:4019C00010B5064B1B78002B04D1FFF7D7FF0122024B1A70FFF7BAFF10BDC046600200200004000C014B18607047C046480105400004000C014B18607047C046540105402A
:401A00000004000C014B18607047C0464C01054070B504000D0000F00DFAAC40024B1C6000F00CFA70BDC0460800054010B500F001FA064A116802230B43136000F0FEF9E5
:401A400018210220FFF7E4FF10BDC04600000540014B18607047C0467801054010B50D4C8023DB042360236823600020FFF7B8FF236823600C22084B1A600120FFF7E8FFD6
:401A80003122064B1A60FF20FFF7B2FF0020FFF7B7FF10BD40010540640105406801054010B5064B1B78002B04D1FFF7D7FF0122024B1A70FFF7BAFF10BDC0466102002057
:401AC0000004000C014B18607047C046C80105400004000C014B18607047C046D40105400004000C014B18607047C046CC01054070B504000D0000F09DF9AC40024B1C6088
:401B000000F09CF970BDC0460800054010B500F091F9064A116808230B43136000F08EF918210820FFF7E4FF10BDC04600000540014B18607047C046F801054010B50D4C06
:401B40008023DB042360236823600020FFF7B8FF236823600C22084B1A600120FFF7E8FF3122064B1A60FF20FFF7B2FF0020FFF7B7FF10BDC0010540E4010540E8010540A3
:401B800010B5064B1B78002B04D1FFF7D7FF0122024B1A70FFF7BAFF10BDC04662020020034A10680223184010604008C0B2704710000440014B18647047C0460000002094
:401BC00010B5040000F036F9044A1368C0218B43A4011C43146000F031F910BD00E400E00122014B1A60704700E100E00122014B1A60704780E100E010B50400FFF7F6FF6C
:401C00002000FFF7D7FF0320FFF7DAFFFFF7E8FF10BDC046034A10680223184010604008C0B2704710010440014B98647047C0460000002010B5040000F0FCF8044A116805
:401C4000044B0B40A4051C43146000F0F7F810BD00E400E0FFFF3FFF0422014B1A60704700E100E00422014B1A60704780E100E010B50400FFF7F6FF2000FFF7D5FF032099
:401C8000FFF7D8FFFFF7E8FF10BDC04610B503210E20FFF793FC25490E20FFF77DFC0122234B1A60234B1B68002B01DA224900E02249234A13680B431360224A224B1A604C
:401CC000224A234B1A60C0221206224B1A60224B224A1360224A1360224A1368802149020B4313600023204A1360204A136001331F4A136002211F4A11601F4908681F4AC5
:401D0000024013430B6000230DE09A001C4951188020C0000860580000241A4944521A481A4950500133002BEFD010BD151E000020001A4080031A40700210537002005377
:401D400000001A40F400008004001A400000FF0718001A401C001A400400040010001A4014001A4000031A4028021A4038021A4018021A40000F1A4030001A40FFFFFFDFB1
:401D800080001A40240300203E1800002003002010B5074B1B68002B08DB054A1368802109060B4313600A20FFF746FC10BDC04600001A4010B5064B1B78002B04D1FFF758
:401DC00065FF0122024B1A70FFF7E2FF10BDC04663020020034A1368802149020B4313607047C04604001A4010B5041E02D00020FFF7D0FB002C07D1A400054B9C466444AA
:401E000020680004000C00E0002000B210BDC04680011A40014B1A681A60704710021A400230800804D0C0460138FDD1C046C046C0467047EFF3108072B6704780F310887F
:401E40007047C04610B5AD4B1B68002B00D09847AB4B1B68DB0702D50022AA4B1A60AA4B1B789B0628D5A94B1B68DB0507D5A84A1188C0239B000B431380012300E000235E
:401E8000A24A1268D20706D5A14A118890239B000B4313800123002B0FD09B4A1278D20701D5012200E002229949088802430A800021954A117000E00023934A127892061E
:401EC00000D414E1914A1268D20611D51022914B1A608D4B1B78DB0701D5012300E002238B4A11880B4313801022874B1A7004E1854A1278120720D5844A126892070AD549
:401F00000222844B1A60824A118888239B000B431380012311E07C4A1278D20703D52521794A117009E02421774A11707A4A1268002A02D01439794A1160734A127852073D
:401F400000D4ABE0704A1278D20749D5744A1268120727D5734A1268734909680F240C40724909686418141B082C09D8002C16D16F4A11686F4B0B401360012308340EE0A0
:401F800008240CE0694A11686B48006841186B480068C0B20870116801311160013C002CF0D119E05E4A1268520715D55F4A116861480068411861480068C0B208701168C0
:401FC000013111601168574A1268914203D204215B4A116000E001235A495B4A11605DE04A4A1268920726D502224A4B1A6057490B680D321A40096880231B020B4000D000
:4020000001239B18524A1168CB1A13601268514B1A603F4A118884239B000B4313804E4B1A68802149020A431A6019684B4A0A401A60012332E04A4A1268D20612D424E0D9
:40204000434A1168344A1268914211D2404A11684448006841180978C9B243480160116801311160394A12680F210A40082AE7D1374A1168284A1268914202D14021274A99
:4020800011603A493A4A116008E0354A1268520604D52F4B1A682F4B1A600123002B2CD0234A1168234B0B4013600023314A13601A4A1360304B1B789B070ED5124B1B786D
:4020C000DB0701D5092300E00A23114A11880B43138060220C4B1A700FE0284B1B689B0601D5182200E01022154B1A6005E0064B1B78DB0601D4FEF7F5FF10BD38020020A6
:402100008C0E0640880E0640F80200200C0F064008030020000F064004030020880F0640CC0F064014030020080306401803002060000640FFFEFFFF0C03002040030640A7
:4021400068000640ED0F0000C00F064008020640FC0200200003002004020640FFFFFEFF8C0F06401C03002040020640F3070000800F0640C80F0640100300206400064057
:40218000044B1B680F221340082BF9D0024B18607047C0460802074040020740002243088B4274D303098B425FD3030A8B4244D3030B8B4228D3030C8B420DD3FF22090236
:4021C00012BA030C8B4202D31212090265D0030B8B4219D300E0090AC30B8B4201D3CB03C01A5241830B8B4201D38B03C01A5241430B8B4201D34B03C01A5241030B8B42EB
:4022000001D30B03C01A5241C30A8B4201D3CB02C01A5241830A8B4201D38B02C01A5241430A8B4201D34B02C01A5241030A8B4201D30B02C01A5241CDD2C3098B4201D3A3
:40224000CB01C01A524183098B4201D38B01C01A524143098B4201D34B01C01A524103098B4201D30B01C01A5241C3088B4201D3CB00C01A524183088B4201D38B00C01AFE
:40228000524143088B4201D34B00C01A5241411A00D20146524110467047FFE701B5002000F0F0F802BDC0460029F7D076E7704703460B437FD4002243088B4274D30309FF
:4022C0008B425FD3030A8B4244D3030B8B4228D3030C8B420DD3FF22090212BA030C8B4202D31212090265D0030B8B4219D300E0090AC30B8B4201D3CB03C01A5241830B5D
:402300008B4201D38B03C01A5241430B8B4201D34B03C01A5241030B8B4201D30B03C01A5241C30A8B4201D3CB02C01A5241830A8B4201D38B02C01A5241430A8B4201D36F
:402340004B02C01A5241030A8B4201D30B02C01A5241CDD2C3098B4201D3CB01C01A524183098B4201D38B01C01A524143098B4201D34B01C01A524103098B4201D30B01B1
:40238000C01A5241C3088B4201D3CB00C01A524183088B4201D38B00C01A524143088B4201D34B00C01A5241411A00D201465241104670475DE0CA0F00D04942031000D3D9
:4023C0004042534000229C4603098B422DD3030A8B4212D3FC22890112BA030A8B420CD3890192118B4208D3890192118B4204D389013AD0921100E08909C3098B4201D343
:40240000CB01C01A524183098B4201D38B01C01A524143098B4201D34B01C01A524103098B4201D30B01C01A5241C3088B4201D3CB00C01A524183088B4201D38B00C01A3C
:402440005241D9D243088B4201D34B00C01A5241411A00D20146634652415B10104601D34042002B00D54942704763465B1000D3404201B5002000F005F802BD0029F8D095
:4024800016E770477047C046F0B5564644465F464D46F0B444024600C70F83B08846650A360EBA463DD0FF2E22D00023EC00802599469B46ED0425437F3E43465C025800F9
:4024C000DB0F640A000E984636D0FF2830D080230021E400DB041C437F38301A0190484642460843724E800030587A4013008746002D44D108239946063B9B46DDE70122DB
:40250000FF2000241A406402C305640AD2071C431443200003B03CBC90469946A246AB46F0BD002D20D104239946033B9B46C4E7002C17D1022102E0002C0AD10121321A51
:4025400001924A4643460A435A48920082587B409746200000F0F4FB431F76309C4040420021BAE70321B8E7280000F0E9FB431F9D4000237630464299469B469DE70C23D3
:402580009946093B9B4698E780240022E403FF20B9E70024C2468B465A465346022AAED0032A7DD0012A31D1012200201A400024A9E70122101A1B2856DD1A4000200024F3
:4025C000A1E78023DB031D424BD18023DB032B435C02640A3A00FF2095E76D016001854230D2019A0024013A01921B220127290064006D00002901DBA84201D82D1A3C43B5
:40260000013A002AF3D16A1E95412C4301987F300028CEDD620704D00F222240042A00D00434220103D5244A019814408030FE2800DD64E70122A401640AC0B21A4062E7E4
:402640002C00A9E72D1A1A220124CFE76B02BCD500248023DB031C436402640A4246FF2051E71C42B3D1F4E721002022C140101A8440621E94410C43620704D00F22224008
:40268000042A00D00434620104D5012201201A40002438E70122A401640A1A40002032E78023DB031C436402640A5246FF202AE7003A0000403A0000FFFFFFF770B5041E93
:4026C00028D000F03DFB9E231B1A962B0ADC9622D21A94406202520AD8B25202520AC005104370BD992B18DC9922D21A9440114A2240610704D00F210C40042C00D0043288
:40270000510103D50B4B1A409F231B1A9201520AD8B2E2E700200022DFE705222500121AB921D5402200C91A8A40541EA2412C001443DCE7FFFFFFFBF0B55F4656464D463C
:402740004446F0B40D0399464E002B0B87B00700924680469B46760DCC0F002E69D06D4B9E4235D05B468022DD001204430F13432B439B46C3009846674B00279C460023ED
:40278000664401934A4615035000D20F53462D0B400D914600D176E05E4A90426CD080225B0F120413435C4AED0094461D4353460022DB00604449463618701C6140029015
:4027C00017430F2F00D9AFE05448BF00C759BF465B461F4300D088E000239B469846023308270193CEE74946022A6AD0032A00D109E2012A00D0BBE111400022002300255F
:402800009046CCB200212D030A0D12052D0B1543434A1B0515401D436D00E4076D0825434046290007B03CBC90469946A246AB46F0BD034352D05B46002B00D18AE15846F7
:4028400000F07EFA03000B3B1C2B00DD7BE11D22D31A3A0001005D46DA4008398D4013008F402B439B46B8462E4B00279C46002360444642019385E752462A432CD10025CE
:402880000023022297E752462A4321D0002D00D154E1280000F054FA03000B3B1C2B00DD46E11D21CB1A51460200D9405346083A954093400D431B4A944660444042002201
:4028C00079E7012400220C40124B0025904699E70025002301226EE703226CE700239B4698460133042701934CE703230C27019348E700238025984600242D03054B81E7FF
:402900005D464346019A6FE75D4643462100019A6AE7C046FF07000001FCFFFF803A0000FFFF0F80F30300004246120C91461A0C9446424617044A461B041B0C5A436046C4
:4029400090464A4642431000039262461C003F0C7A437C4342440192220C9246019A5244904506D98246802040028046C24450460390100C049048462404240C12041219C2
:4029800005922A0C2D042D0C68432C00824648467C4350438146200C8046574357444744BA4503D9802040028046C144380C3F04B84648442404240C01900498A044404462
:4029C00004905846000C814658460404200C8246070048465F434C464343604660436446834650464443380C8446E4186444A34203D980235B029C46E34448463F04230C94
:402A00003F0C2404E419574668436F4384464D46504655434243380C814662444A445B44944503D9802040028446654403983F04834604983F0C8446E344C345804140426A
:402A40008246100484460198674484466744A344BC46A345A4419946D44464428742BF41D4458041E144A04699459B417F424042C8440743120CBA18A045A4415F423B000D
:402A800064422343D71843467D19DB0D6D021D435B465A02059B1A43531E9A415B46DB0D1A4343465B021343EA0107D501225C0813402343EA07029E13436D08574AB2180F
:402AC000002A4BDD580709D00F201840042805D0181D98429B415B42ED180300E80104D54F4A15408022D200B2184E48824200DDE7E60124DB08680718436D0253058046E3
:402B00002D0B5B0D0C407DE6802259461203114208D0154206D115432D0398462D0B4C46414B6FE65D4615432D032D0B3E4B69E603005546283B9D400023BCE6504600F022
:402B4000FFF82030A8E60300283B9F400023BB46984689E600F0F4F8203073E60124A61A382E07DD00220C4000230025904649E6029EA3E71F2E20DC20222C001800921BB5
:402B8000F040944093400443581E83411C43F540630709D00F232340042B05D023001C1D9C4292415242AD182B021FD5012400220C4001230025904624E61F202C0040421D
:402BC000821AD440202E1CD04022961BB5402B43581E83410720234318400025002809D00F2200251A401C00042AD8D1230068076D022D0B0124DB08034398460C400023B9
:402C000000E60025E3E780220124120315432D0398462D0B0C40044BF4E5C046FF030000FFFFFFFEFE070000FF0700000B0330B5134D1A0B4B005B0DC90F0024AB4211DDC1
:402C4000104CA34210DC8024640322430E4CE41A1F2C0CDD0D48C31ADA4013005C42002900D11C00200030BD094BCC18FAE7E040084CA44663449A4013000343EEE7C046DF
:402C8000FE0300001D0400003304000013040000FFFFFF7FEDFBFFFF4200120E511C4302C9B270B55D0AC40F012915DDE02189008C466D071B0B6244002128000D0D2D0507
:402CC0002B431C4D52052B40520813435B00E4075B082343190070BD002A15D1002D1FD0280000F02DF80A281DDC0B232A001B1ADA4013000200153295400F4A1B03121A27
:402D000052051B0B520DD7E7002D06D080221B0B120313436D07094ACEE7084A0023CBE700220023C8E703000B3B9D402B000025E3E7C046FFFF0F8089030000FF070000C7
:402D40001C2101231B04984201D3000C10391B0A984201D3000A08391B09984201D30009043902A2105C40187047C04604030202010101010000000000000000014B18689A
:402D80007047C046AC0100200E4B70B500251E000D4CE41AA410A54204D0AB00F35898470135F8E700F0A8FE084B00251E00084CE41AA410A54204D0AB00F3589847013520
:402DC000F8E770BD043B0000043B0000043B00000C3B0000002310B59A4203D0CC5CC4540133F9E710BD03008218934202D019700133FAE7704700000EB410B59DB002A9F3
:402E0000029008610B48822488604861012040421FABC881084804CBA400006801938C8100F06EF80023029A13701DB010BC08BC03B01847FFFFFF7FAC010020F0B58E68A0
:402E400085B007000C00039201939E4243D890238A89DB001A423ED003250969236801985B1A029363695D43EB0F5D19029B6D1001331B18AB4200D91D00530510D529006D
:402E8000380000F037FB061E14D0029A2169FFF7A1FFA289194B134080221343A38112E02A00380000F086FB061E0CD12169380000F0D4FA0C23402201203B60A3894042B5
:402EC0001343A38117E0029B2661F61826606561019EED1AA560019BB34200D21E0032000399206800F0A5FA0020A3689B1BA36023689E19266005B0F0BDC0467FFBFFFF46
:402F0000F0B59FB0029005938B890F0016001B0610D50B69002B0DD1402100F0EBFA38603861002804D10C23029A01381360D8E040237B61002306AD6B6120336B761033CC
:402F4000AB7634002378002B03D1A31B049312D003E0252BF9D00134F4E7A31B320039000298FFF76BFF431C00D1B4E06A69049B944663446B612378002B00D1ABE0012234
:402F8000002352426A6002A95432521801342B60EB60AB601370AB65534E21780522300000F03CFA002807D00123801B83402A68013413432B60EFE72B68DA0604D55322D5
:402FC000202102A8121811701A0704D553222B2102A81218117022782A2A03D0099B00200A210EE0059A111D12680591002A01DB099204E05242EA60022213432B60013413
:403000000BE02278303A092A04D84B4301349B180120F6E7002800D0099323782E2B1ED163782A2B0AD1059B02341A1D1B680592002B01DA01235B42079310E000230A20D7
:403040001A0001346B6021783039092904D84243013452180123F6E7002B00D00792234E21780322300000F0D9F9002806D04023801B83402A68013413432B602178062224
:403080001B48661C297600F0C9F9002812D0194B002B06D10722059B073393430833059314E005AB00933A00134B2900029800E000BF07E005AB00933A000F4B290002980C
:4030C00000F08AF80390039B013304D06B69039A9B186B6135E7BB890B985B0601D5012040421FB0F0BDC046C23A0000C83A0000CC3A0000000000003D2E0000F7B51700A4
:4031000001938A680B6900900C00934200DA130022003B6043321278002A01D001333B6023689B0602D53B6802333B60062523681D401ED0230043331B785A1E9341226838
:4031400092061CD53020E1184331087021005A1C45310978A2184332023311700FE022000123193201990098089EB047431C0ED00135E3683A689B1A9D42F0DBDAE722002D
:40318000019943320098089DA847431C02D10120404220E006232068E1683A6803400025042B03D18D1AEB43DB171D40A3682269934201DD9B1AED180027BD420AD02200AF
:4031C00001231A3201990098089EB047431CDED00137F2E70020FEBDF0B58BB006920A0043320793059004920A7E0C00109B6E2A00D1ABE011D8632A22D009D8002A00D164
:40320000B5E0582A00D0C5E045310A70814A4FE0642A1DD0692A1BD0BCE0732A00D1AAE009D86F2A29D0702A00D0B3E0202209680A43226037E0752A1FD0782A33D0A9E0C6
:403240000E001A684236111D196013683370A4E021681A68080606D4490604D5111D19600023D55E02E0111D19601568002D3BDA2D23049A6D42137036E021681A6808064E
:4032800006D4490604D51568111D1960ADB202E0111D196015685F4B227E039308276F2A1DD00A271BE022007821453211705A4A19680392081D226818600D68100602D4CD
:4032C000500600D5ADB2D30702D520231A4322601027002D03D1202322689A4322602300002243331A7002E00A274A4B03936368A360002B09DB0422216891432160002D7C
:4033000005D1049E002B11D07BE0002D79D0049E28003900FEF7C8FF039B013E5B5C280033703900FEF73AFF051EF1D1082F09D12368DB0706D563682269934202DC302319
:40334000013E3370049B9B1B23612BE009681A68080607D4490605D5111D19601368A28A1A8004E0111D1960136862691A600023049E236116E01A68111D19601668002148
:403380006268300000F04AF8002801D0801B6060636803E0260042363270012323610023049A1370079B09AA00932100069B0598FFF7A4FE431C02D10120404227E023696C
:4033C000320006990598079DA847431CF4D0236800259B070FD4099BE068984217DA180015E022000123193206990598079EB047431CE1D00135E368099A9B1A9D42F0DBB4
:40340000E9E72600039B42361B7833708EE70BB0F0BDC046D33A0000E43A0000C9B28218904204D003788B4202D00130F8E70020704710B5884202D98B18984201D30023A2
:4034400005E09B1A013A08D3995C8154FAE7934203D0CC5CC4540133F9E710BD70B50500002944D00C1F2368002B00DAE418280000F0D8F81E4A13681100002B02D163606D
:40348000146031E0A3420DD92268A018834203D118685B688218226063600C6024E0A24203D813005A68002AF9D11E689819A0420BD12168711858181960824214D11068B6
:4034C0005268411819605A600EE0A04202D90C232B6009E021686018824203D1106852684118216062605C60280000F09CF870BD68020020032370B5CD1C9D43083506005B
:403500000C2D01D20C2501E0002D01DBA94202D90C23336048E0300000F084F8234B1C681A002100002913D00B685B1B0DD40B2B02D90B60CC181EE08C4202D163681360D8
:403540001AE04B6863600C0016E00C004968E9E7174C2368002B03D1300000F051F820602900300000F04CF8431C18D00323C41C9C43A0420DD12560300000F054F82000EC
:4035800007220B30231D9043C31A0ED05A42E2500BE0211A300000F033F8431CEBD10C233000336000F03FF8002070BD6802002064020020F8B506000C001500002904D137
:4035C0001100FFF797FF040018E0002A03D1FFF745FF2C0012E000F027F885420ED929003000FFF787FF071E07D021002A00FFF7F1FB21003000FFF731FF3C002000F8BD99
:40360000002370B5064C050008002360FDF7C8FB431C03D12368002B00D02B6070BDC04628030020704770470B1F1A68101F002A04DA891804390B68D0180438704700006A
:403640000000000052040000000400001A0400000C0400002A0400003804000046040000010101000001010001000100636F756E745F736574202564000000006A6F7973C5
:403680007469636B2025642020200A006209000026090000440900004E090000300900003A09000058090000FC0B0000A00B0000CE0B0000DE0B0000AE0B0000BE0B00003B
:4036C000EE0B00004552524F525F575249544538000000004552524F525F5245414438004552524F525F5245414431360000000050524F424C454D5F524541445F49440004
:403700002575000072202564207C2067202564207C20622025640A0052454400475245454E000000424C5545000000004F52414E4745000042524F574E00000059454C4C49
:403740004F5700004E4F4E45000000006D61785F6E756D5F746F5F6D65617375726520256400000073746172744E6F6E6525647C0000000025647C007472756500000000BA
:403780006D696E2072202564207C2067202564207C206220256400006D61782072202564207C2067202564207C2062202564000068656C6C6F000000F40C0000A60C00001D
:4037C000C00C0000B20C0000CE0C0000DA0C0000E80C0000000101000100010000300F40000400400F40000401010A0218031B032E012F0430043203330135043603370280
:403800003E015804590B5B045F018206842D865287048A158B088E4D93109501971E9E2DA62DA903AD02AF01B003B110B204B304B418B503B660B708BAA2BF45D809D9092D
:40384000DB04DF01001005550B080E0110021708181019801A811D551F04212823012402260927082A802D802F04312037093B013E145D8068026E146F017B807F088508F9
:40388000C0F2C282C421CA38CCC4CE61D610DE21000E02900403060408010AFC1701180A1A541C241E0A28042AFA30E0320733013480361839203AAA3B08580459045F014F
:4038C000800582028303840E86908EFE8F01900C92529422960C97079EFEA402A6FCA801AAFAB080B102B218B4E0B501B607B704B908BAAABBA2D809D909DF01004003A057
:40390000050507080A500B010E051220132017101A501BA01D051E051F0820402228232127183208370838403B017B0880019002A788AA40AE80B208B601C07DC2CDC4465A
:40394000CC42CE09DE04E404E628EA10EE8413042E085280540256805F026F0172088701C410CA80D460D6A0DA80DC20E2405B40630287018A809B409E80AA80AB40AF046D
:40398000B002B702D480D640E610E840EEA018201A081C801F2050106702830186048840A720AB20C60FD404D601E604010110012E300F4026310F4036320F4029330F40EA
:4039C00010400F4010410F400F430F4002600F40030405060708090A0B0C0E0F101112131415161718191B1C1D1E1F2021222325262728292A2B2E2F303132333435000046
:403A0000DA250000FE240000BC25000094250000BC25000088250000BC25000094250000FE240000FE2400008825000094250000402600004026000040260000C2250000E0
:403A4000FE240000FE240000A825000092250000A825000088250000A825000092250000FE240000FE24000088250000922500004026000040260000402600004C26000034
:403A800028290000E8270000E8270000E62700000029000000290000F2280000E627000000290000F228000000290000E6270000082900000829000008290000082B0000D2
:403AC0004300232D302B2000686C4C006566674546470030313233343536373839414243444546003031323334353637383961626364656600000000F8B5C046F8BC08BC65
:403B00009E467047B5020000190E0000F8B5C046F8BC08BC9E4670478D020000303B0000C0000020F0000000800100000000000000000000FF000000FF000000FF000000FE
:403B4000FF000000FF000000FF000000FF000000FF000000FF000000FF000000FF000000FF000000FF000000FF000000FF000000FF000000FF000000FF000000FF00000055
:403B800000FF00000000FF00FF820300FF7E0000754C0000FF000000FF000000FF00000030030020010000000000E02EC05D00001800000000366E01040404000000000000
:403BC00000000000000000000000000000000000000000000000000000000000C03A00000000000000000000000000000000000000000000000000000000000000000000CB
:403C0000000000000000000000000000000000000000000000000000000000004C010020000000000000000000000000000000000000000000000000000000000000000017
:403C40000000000000000000000000000000000000000000000000000000000000000000000000000000000000000000000000000000000000000000000000000000000044
:403C80000000000000000000000000000000000000000000000000000000000000000000000000000000000000000000000000000000000000000000000000000000000004
:403CC00000000000000000000000000000000000000000000000000000000000000000000000000000000000000000000000000000000000000000000000000000000000C4
:403D00000000000000000000000000000000000000000000000000000000000000000000000000000000000000000000000000000000000000000000000000000000000083
:0200000490303A
:02000000D449E1
:0200000490402A
:200000000000000000000000000000000000000000000000000000000000000000000000E0
:0200000490501A
:0C000000000204C81193110104DAE5DCD1
:0200000490600A
:0100000001FE
:00000001FF