:400000000010002011000000950D0000950D000010B500F0DFFEC04670B51D4C23688022D20213432360182001F012FB2268194B13402360184A194B1A601022184B1A60F2
:400040001032184B1A603023174A1360174A1360174A1360174A1360174A136080221206164B1A6000252560154A164B1A60164A164B1A60164A174B1A601749092001F080
:400080008DFA092001F074FA144B1D6070BDC04600010B40FFFFFBFF0600008004010B40080202400C0202402002024024020240280202402C0202403002024008010B40FC
:4000C0000E00008000000240CF000080400002406F17008080000240611800000C020B4010B572B601223B4B1A7000240FE03A486200131959000B00411889881A5AC31865
:4001000058880004104300F03FFE0134E4B2012CEDD931490C3131483C3000F01BFE304A304B1A60C02292042F4B1A602F4A304B1A60EE222F4B1A6099231B042E4A1360E5
:400140002E492F4A11602F4A13608A21C9052E4A11602E4A13602E4A13602E4A2E4B1A6001222E4B1A6001322D4B1A602D490B783A32934314221343DBB20B702A4A117888
:4001800016230B43DBB21370AF22284B1A60284A284B1A600822284B1A601832274B1A602032274B1A60274A274B1A60C0221204264B1A608222264B1A60264A264B1A60D6
:4001C0000322264B1A602132254B1A60FFF724FF10BDC0461C700F4040360000C037000003339930000001400400014030EE00300C0001401000014000500F4000004B40E3
:4002000008500F4010500F4018500F4020500F4030500F40000051C038500F402000004000800F4001700F4000700F4000000440961DDB00080004400C00044018000440C3
:400240000001044036001800080104400802044000030440B00DC30008030440000404400804044010B5064C2378002B07D1054B002B02D0044800E000BF0123237010BD31
:40028000D801002000000000C8340000084B10B5002B03D00749084800E000BF07480368002B00D110BD064B002BFBD09847F9E700000000DC010020C8340000C000002092
:4002C0000000000010B50A4B1A6801321A600121084A11705B68FF2B03D10022044B5A6002E0FF22024B5A6001F0A2FC10BDC046F40100205802002010B5040000F0BEFD65
:40030000200000F0C7FD200000F0D0FD0C4B1A78587840009B789B0010431843C0B200F0D1FD012000F0A4FD00F0D2FD0128FBD1002000F09DFD00F0CBFD0028FBD110BDFE
:40034000C400002010B50120FFF7D6FFBE2001F05DF900F0C3FD064801F058F90020FFF7CBFF0A2001F052F900F026FE10BDC0462602000010B584B0474800F0E3F862B6C3
:4003800000F040FE01F074F800F068FD01F01AFB01F0F8FB01F086FB40490A78487800020300134388780004184300F0FFFA3C4801F06AFC03E00021F62000F09FF9394B92
:4003C0001B78002BF7D0FFF7BDFFFA20800001F01DF900F0F1FD002000F09EFD01E000F035FB314B18680728F9DD012000F094FD2D4B1A682D4C2E49200002F041FC20009F
:4004000000F0A0F82B4C0123237001AA02A903A800F0CAF9019A0299039800F037FA2378002BE5D00628E3D88000234B1B589F46224B00221A705A709A70FFF783FFD7E793
:400440001E4B00221A705A7001329A70FFF77AFFCEE71A4B00221A70012159709A70FFF771FFC5E703221649144802F0F7FBFFF769FFBDE7114B01221A7000225A709A705F
:40048000FFF760FFB4E703220D4904310B4802F0E5FBFFF757FFABE70C35000048020020C5020000FC010020F40100209402002014350000FD010020CC340000C4000020F4
:4004C0000435000010B50C0006282AD880001A4B1B589F46194B00221A705A709A7020E0164B00221A705A7001329A7019E0134B00221A70012159709A7012E00322104925
:400500000E4802F0ABFB0CE00C4B01221A7000225A709A7005E0032209490431074802F09DFB002C03D00120FFF7E6FE02E00020FFF7E2FE10BDC046E8340000C4000020D8
:400540000435000010B501F007F810BD70B504000D0064220021292000F086FE802040420443E0B2642100F00DFF0B4B1860002802D00A48FFF7E6FFFF202840642100F0B9
:4005800001FF054B1860002802D00448FFF7DAFF322000F0CBFE70BD1C0300205435000010B582B0040064220021292000F05CFE802040420443E0B2642100F0E3FE114B7C
:4005C0001860002802D01048FFF7BCFF322000F0ADFE64220121292000F046FE64226B46D91D002000F0F2FE064B1860002802D00548FFF7A7FF322000F098FE6B46D879BB
:4006000002B010BD1C0300206435000010B582B0040064220021292000F026FE802040420443E0B2642100F0ADFE322000F07EFE64220121292000F017FE64226B46D91D68
:40064000002000F0C3FE104B1860002802D00F48FFF778FF64226B46991D012000F0B6FE094B1860002802D00848FFF76BFF322000F05CFE6B4698796B4607331B78000212
:40068000184302B010BDC0461C0300207035000010B501210020FFF759FF032000F0B6FF03210020FFF752FF074B1A7880235B009B1A5A00D3189800052101F03DFD0130D8
:4006C00000F0A4FF10BDC0461803002010B5040001000120FFF73AFF014B1C7010BDC0461803002010B5040001000F20FFF72EFF014B1C7010BDC0461903002070B505002C
:400700000C001220FFF74CFF4D2808D0442806D0102804D00D48FFF715FF002014E00C4E02000C49300002F0ABFA3000FFF70AFF0122094B1A702800FFF7C8FF2000FFF789
:40074000D1FFFFF7A5FF012070BDC046803500009402002090350000FC010020F8B506000D0014001F001420FFF750FF38801620FFF74CFF30801820FFF748FF28801A20CC
:40078000FFF744FF2080074B1A7880235B009B1A5A00D3189800052101F0CEFC013000F035FFF8BD18030020F0B585B006000F00150002AB1A00023203A918000630FFF7D7
:4007C000CDFF02AB1C88002C04D100232B603B60336035E002ABD88801F0B4FE0190200001F0B0FE041C011C019801F091FD02F097F90022134B01F0E3FE02F05BF93060EB
:4008000003AB188801F09EFE211C01F081FD02F087F900220B4B01F0D3FE02F04BF9386002AB588801F08EFE211C01F071FD02F077F90022034B01F0C3FE02F03BF92860DF
:4008400005B0F0BD00E06F4010B50468944211DC44689C4210DC8068029CA0420EDC086882420DDC4A6893420CDC8B689C420BDD00200AE0002008E0002006E0002004E06A
:40088000002002E0002000E0012010BDF0B583B004000D0016003A4F00920B0002003949380002F0EDF93800FFF74CFE364901234B70043100962B0022003448FFF7C4FF6C
:4008C000002804D03248FFF73DFE012056E000962B0022002C4910312C480C30FFF7B4FF002804D02B48FFF72DFE042046E000962B00220024491C3124481830FFF7A4FF44
:40090000002804D02448FFF71DFE052036E000962B0022001C4928311C482430FFF794FF002804D01D48FFF70DFE032026E000962B0022001449343114483030FFF784FFBC
:40094000002804D01648FFF7FDFD062016E000962B0022000C4940310C483C30FFF774FF002804D00F48FFF7EDFD022006E00E48FFF7E8FD0022044B5A70072003B0F0BD11
:400980009402002094350000FC010020D0000020A8350000AC350000B4350000BC350000C4350000CC350000D4350000F0B583B001AE0190C5B2FF24601B00F0B3FF777852
:4009C000E01B01F08FF8B678A01B01F01BF8002405E032003900280001F016F90134132CF7DD01F01FF903B0F0BDC04610B5062821D88000124B1B589F46124B986CFFF7CC
:400A0000D5FF1CE00F4BD86CFFF7D0FF17E00D4B186DFFF7CBFF12E00A4B586DFFF7C6FF0DE0084B986DFFF7C1FF08E0054BD86DFFF7BCFF03E0044BD86CFFF7B7FF10BD10
:400A40001C350000D0000020FC01002010B5002809D102001F49204802F012F91F49204800F06CF933E0062831D883001D4AD3589F4602001C4904311C4800F065F926E0C5
:400A800002001949103119480C3000F05DF91EE0020015491C311548183000F055F916E002001149403111483C3000F04DF90EE002000D4928310D48243000F045F906E006
:400AC0000200094934310948303000F03DF9002010BDC046DC350000940200204C0200204801002038350000FC010020D000002010B500230AE09A000849545811588C42BB
:400B000008DC074C1259914206DC0133022BF2D9012002E0002000E0002010BD480100204C020020F0B55F4656464D464446F0B489B08146884693461D000393754C7649EA
:400B4000200002F09DF82A007449200002F098F8734B1B7B002B00D1D3E0012000F0DCF95B46002B02D06423029301E00A2302935B46002B03D101210398FFF7A3FC0026E7
:400B800000231F005BE007AA06A905A8FFF70CFE5B46002B0FD105A8FFF7AAFF00280AD05C4C04225F49200002F058F82000FFF7C9FC002643E0069B564C079A0092059AA0
:400BC0005949200002F05CF82000FFF7BBFC0136F31E012B2AD95B46002B2AD12FE0002252494C4802F04CF8AC0005ABE3584A4616193268934207DA01224C49454802F06F
:400C00003FF805AAA3583360AB0005AA9B5844442268934208DD022244493E4802F030F8AB0005AA9B582360013504E00025B24601E00025B246022DD1D956460237029B86
:400C40009F42A0D30022364B1A73FA20C00000F0DDFC5B46002B03D100210398FFF732FC002000F059F95B46002B26D0294C05222F49200001F0F2FF2000FFF763FC0022FC
:400C80004C46454609E09300E018016805390160EB181968053119600132022AF3D9A146A84611E09300E018016802390160EB18196802311960013202E000224C46454663
:400CC000022AEFD9A146A8464B465B684A461268104C4946896800911649200001F0D0FF2000FFF72FFC43465B68424612684146896800911049200001F0C2FF2000FFF748
:400D000021FC002009B03CBC90469946A246AB46F0BDC04694020020EC350000F43500004C020020003600001436000004360000D4350000103600002836000010B50023C7
:400D40000122FFF7EFFE10BD10B513000022FFF7E9FE10BDF0B50025002711E0BB00C658F3B2FF22964308E06A008A181478A419527822700135013BDBB2002BF4D10137E2
:400D8000072FEBD9F0BDC04610B50A00002101F06EFF10BD10B501F035FF03680C2B00D1FEE7FEE710B50300084A1068C318084A9A1A802A02DC054A136005E001F022FF90
:400DC0000C2303600120404210BDC046540100205003002070B50F4E0F4D13E029686B68AC68002202E001C901C30432A242FAD1E868002202E0002102C304328242FAD144
:400E00001035013E002EE9D101F002FFFFF7B2FAFEE7C046010000006839000010B500230AE0032B03D89A000949505800E009489900094A885001332F2BF2D9FFF750F929
:400E40008022D205116801230B43136010BDC04600000000950D000000000020034A1368802109060B4313607047C04680000240014B18707047C04670000F4004490A683F
:400E8000D2B220239A434001184010430860704700030440044A1368DBB201218B430840184310607047C0460001044004490A687F231A40C301D8B2104308607047C04660
:400EC00000020440014B18707047C04671000F40014B1878C0B2704761000F4010B500F0EDFE044A136801218B43136000F0EAFE10BDC046000005400004000C014B186016
:400F00007047C046080105400004000C014B18607047C046140105400004000C014B18607047C0460C01054070B504000D0000F0C5FEAC40024B1C6000F0C4FE70BDC04655
:400F40000800054010B500F0B9FE064A116801230B43136000F0B6FE18210120FFF7E4FF10BDC04600000540014B18607047C0463801054010B50D4C8423DB04236023686A
:400F800023600020FFF7B8FF236823600C22084B1A600220FFF7E8FF3122064B1A600420FFF7B2FF0020FFF7B7FF10BD00010540240105402801054010B5064B1B78002B65
:400FC00004D1FFF7D7FF0122024B1A70FFF7BAFF10BDC0465902002010B50A2000F0C8FA10BDC04610B500F01DF810BD10B5044A1368802109060B431360FFF7EDFF10BDA0
:401000000000064010B5064B1B78002B04D1FFF7E9FF0122024B1A70FFF7E8FF10BDC0465C02002010B51B4A11680C230B4313600024194B1C60194A194B1A60194B1A4A1B
:4010400013601A4A14601A4A14601A4A13601A4B1C600A2000F096FA03210A2000F0B0FA16490A2000F09AFA154B1C60154B1C60154B1C60154B1C60154B1C60154B1C60CE
:401080001022154B1A70154B1C80154B1C60154B1C6010BD70000640000006407708008060000640070100800003064004030640100306400002064004020640CD1C0000FE
:4010C000C80E0640880E0640480F0640080F0640C80F0640880F06402003002030030020400300202803002010B5144A13685B005B081360002312490B6012490B601248E8
:40110000046812492140016011490B6011490B601149124B19601249124B19601249134B19601349134B19601021134B19701368802109060B43136010BDC04600000640B9
:40114000680006406C00064060000640FF5CFFFF880F0640C80F0640F3070000800F0640ED0F0000C00F0640FF0F0000400F064017030000000F06402003002010B5040018
:401180000368002B09D0012000F058FA2368013B2360002B03D0002003E0002001E08020000610BD10B5002839DBC023034208D00022284B1A601032274B1A7000231024F9
:4011C0003DE0C3070FD5244B1B781B072BD5234B1B685B0001D5002300E0012310211E4A117001242BE0C30520D4830722D4C30605D51022184B1A70002300241FE0164BC8
:401200001B781B0719D5144B1B78DB0701D5252200E02422104B1A70002300240FE00123802424060BE00123012408E001238024640004E00023022401E000230024012B1E
:4012400002D1FFF751FF02E0054A064B1A60200010BDC04668000640200300206000064017030000000F064070B582B004000D001600244B1B78102B40D10A2000F082F9FF
:40128000214B1B68DB0734D4FA239B005E43019600221E4B1A601E4A1E4B1A601E4A1F4B1A606400FF231C40002D03D12422154B1A7004E02522134B1A7001231C43184BBD
:4012C0001C600222174B1A60124B1C680823FF3320001840144B1B68C02423401843040001A8FFF74BFF2043EED0FFF75BFF040000E008240A2000F03BF900E00424200054
:4013000002B070BD2003002064000640080F064017030000000F0640ED0F0000C00F06404002064068000640400F064010B582B0104B1B789B061AD5FA239B0058430190E0
:401340000D4B1B689B0601D5182200E010220B4B1A600B4B18681223FF331840040001A8FFF70CFF2043F4D0FFF71CFF00E0042002B010BD20030020640006406800064066
:40138000000F064010B582B00D4B1B789B0613D5FA239B00594301910A4B18600A4B18680823FF331840040001A8FFF7E7FE2043F4D0FFF7F7FE00E0042002B010BDC0460D
:4013C0002003002040020640000F0640F0B583B004000D00164B1B789B0626D5FA239B005A430192134B18680223FF3318400700114B1B6804261E4001A8FFF7BFFE38439A
:4014000033000343EED0002E05D00C4B1B682B700B4A094B1A60FFF7C5FE002806D1002C04D10422074B1A6000E0042003B0F0BD20030020000F0640C00F06404003064095
:40144000ED0F00006800064010B500F06FF810BD10B500F01DF810BD10B5044A1368802109060B431360FFF7EFFF10BD0000074010B5064B1B78002B04D1FFF7E9FF0122A1
:40148000024B1A70FFF7E8FF10BDC04664020020134A144B1A600023134A13601349144A1160144A14490A6007201449086014490B6006381349086013490A60134A13605A
:4014C000134A1360134A1360134A1360134A1360134A1360134A13601268134B1A8070470B000002000007404000074001000A00480007400700008000030740040307404F
:4015000010030740440007400002074004020740880E0740C80E0740480F0740080F0740C80F0740880F074066020020064A1168064B0B40902109040B431360044B1A88E1
:40154000044B1A607047C04600000140FFFF0FFF66020020880F074070B50500002402E000F052FD0134285D0028F9D170BDC0461F2318401E3B8340014A13607047C046B3
:4015800000E100E01F2318401E3B8340014A13607047C04680E100E001BE704770B504000D001F2802D90020FFF7F6FF1034A40080239B059C4664442068256070BDC0462A
:4015C00070B504000E00032902D90020FFF7E4FF1F2C02D90020FFF7DFFF03252540ED00063500F06BFBA408A400074B9C46644421680323AB4099430B003100A94019436C
:40160000216000F05FFB70BD00E400E010B5040006E0084B586800F047FB074B9C46644480231B029C42F4D8024B9868604300F03BFB10BD580100200080FFFF10B5034BC7
:401640001B7B584300F030FB10BDC04658010020F0B557464E46C0B483B0040000F02EFB0190E71E2D2F74D83F4B1B78DBB29C4208D83E4B1B78DBB29A463D4B1B78DBB261
:40168000994631E03B4B1B78DBB29C4208D83A4B1B78DBB29A46394B1B78DBB2994623E0374B1B78DBB29C4208D8364B1B78DBB29A46354B1B78DBB2994615E0334B1B7865
:4016C000DBB29C4208D8324B1B78DBB29A46314B1B78DBB2994607E02F4B1B78DBB29A462E4B1B78DBB299462D4BDE5D2F2E09D92A2C07D919222B4B1A60052000F0D4FA98
:40170000192503E0274B1D683F231D40B54206D9234BDA5D234B1A60052000F0C5FA1F4B9C4664442378DBB21F4A13601F4B52461A601F4B4A461A600520FFF77FFFB54223
:401740000AD2174BDA5D174B1A60052000F0ACFA02E00020FFF720FF019800F0B3FA03B00CBC91469A46F0BDC0F1FF0FC1F1FF0FC2F1FF0FC3F1FF0FC4F1FF0FC5F1FF0FA8
:40178000C6F1FF0FC7F1FF0FC8F1FF0FC9F1FF0FCAF1FF0FCBF1FF0FCCF1FF0FCDF1FF0F1C3800002CFF0B4028FF0B401CFF0B4020FF0B40034B1868C0231B02184000D0E3
:4017C0000120704700010B4010B500F077FA044A1368C02109020B43136000F073FA10BD00010B4010B500F069FA08490A68084B1A408024E40122430A600A68134080226C
:40180000120213430B6000F05DFA10BD00010B40FF3FFFFF70B5050000F050FA0400FFF7C9FF002803D0FFF7DDFF012100E0002108482840084A1568084B2B401843106011
:401840001368012901D1FFF7BFFF200000F03AFA70BDC0460404040010020B40FBFBFBFF10B5244B1B685B0715D5234B1B685B070ED5224BD969042001401F4C22688A435E
:401880002260DA698243DA611B69002B00D098470420FFF7BFFF174B1B685B0518D5164B1B685B0510D5154BD9698022D2001140114802688A430260D969114A0A40DA6157
:4018C0005B69002B00D098478020C000FFF7A2FF084B1B685B030CD5074B1B685B0304D5064B9B69002B00D098478020C002FFF791FF10BD10020B406C01002068020020DA
:40190000FFFBFFFF0004000C014B18607047C046880105400004000C014B18607047C046940105400004000C014B18607047C0468C01054070B504000D0000F0BFF9AC40B8
:40194000024B1C6000F0BEF970BDC0460800054010B500F0B3F9064A116804230B43136000F0B0F918210420FFF7E4FF10BDC04600000540014B18607047C046B8010540FF
:4019800010B50D4C8023DB042360236823600020FFF7B8FF236823600C22084B1A600120FFF7E8FF3122064B1A60FF20FFF7B2FF0020FFF7B7FF10BD80010540A4010540F5
:4019C000A801054010B5064B1B78002B04D1FFF7D7FF0122024B1A70FFF7BAFF10BDC046880200200004000C014B18607047C046480105400004000C014B18607047C046AE
:401A0000540105400004000C014B18607047C0464C01054070B504000D0000F04FF9AC40024B1C6000F04EF970BDC0460800054010B500F043F9064A116802230B4313606F
:401A400000F040F918210220FFF7E4FF10BDC04600000540014B18607047C0467801054010B50D4C8023DB042360236823600020FFF7B8FF236823600C22084B1A6001208A
:401A8000FFF7E8FF3122064B1A60FF20FFF7B2FF0020FFF7B7FF10BD40010540640105406801054010B5064B1B78002B04D1FFF7D7FF0122024B1A70FFF7BAFF10BDC046FD
:401AC000890200200004000C014B18607047C046C80105400004000C014B18607047C046D40105400004000C014B18607047C046CC01054070B504000D0000F0DFF8AC4065
:401B0000024B1C6000F0DEF870BDC0460800054010B500F0D3F8064A116808230B43136000F0D0F818210820FFF7E4FF10BDC04600000540014B18607047C046F801054098
:401B400010B50D4C8023DB042360236823600020FFF7B8FF236823600C22084B1A600120FFF7E8FF3122064B1A60FF20FFF7B2FF0020FFF7B7FF10BDC0010540E4010540B3
:401B8000E801054010B5064B1B78002B04D1FFF7D7FF0122024B1A70FFF7BAFF10BDC0468A02002070B500280ED00D4C236802252B432360022000F077F82368AB432360B6
:401BC000012000F071F80AE0054B1A6802210A431A601A688A431A60012000F065F870BD0001044070B50500082409E02B00234101201840FFF7D6FF6D00EDB2013CE4B22B
:401C0000002CF3D170BDC04670B505000C001000FFF7E8FF2800FFF7E5FF2000FFF7E2FF70BDC04610B582204000FFF707FD10BD034A10680223184010604008C0B27047A1
:401C400010000440014B18647047C0460000002010B5040000F032F8044A1368C0218B43A4011C43146000F02DF810BD00E400E00122014B1A60704700E100E00122014B22
:401C80001A60704780E100E010B50400FFF7F6FF2000FFF7D7FF0320FFF7DAFFFFF7E8FF10BDC046000000000230800804D0C0460138FDD1C046C046C0467047EFF310809A
:401CC00072B6704780F310887047C04610B5AD4B1B68002B00D09847AB4B1B68DB0702D50022AA4B1A60AA4B1B789B0628D5A94B1B68DB0507D5A84A1188C0239B000B43B0
:401D00001380012300E00023A24A1268D20706D5A14A118890239B000B4313800123002B0FD09B4A1278D20701D5012200E002229949088802430A800021954A117000E007
:401D40000023934A1278920600D414E1914A1268D20611D51022914B1A608D4B1B78DB0701D5012300E002238B4A11880B4313801022874B1A7004E1854A1278120720D568
:401D8000844A126892070AD50222844B1A60824A118888239B000B431380012311E07C4A1278D20703D52521794A117009E02421774A11707A4A1268002A02D01439794A10
:401DC0001160734A1278520700D4ABE0704A1278D20749D5744A1268120727D5734A1268734909680F240C40724909686418141B082C09D8002C16D16F4A11686F4B0B40D2
:401E00001360012308340EE008240CE0694A11686B48006841186B480068C0B20870116801311160013C002CF0D119E05E4A1268520715D55F4A116861480068411861484B
:401E40000068C0B208701168013111601168574A1268914203D204215B4A116000E001235A495B4A11605DE04A4A1268920726D502224A4B1A6057490B680D321A40096891
:401E800080231B020B4000D001239B18524A1168CB1A13601268514B1A603F4A118884239B000B4313804E4B1A68802149020A431A6019684B4A0A401A60012332E04A4ABC
:401EC0001268D20612D424E0434A1168344A1268914211D2404A11684448006841180978C9B243480160116801311160394A12680F210A40082AE7D1374A1168284A126857
:401F0000914202D14021274A11603A493A4A116008E0354A1268520604D52F4B1A682F4B1A600123002B2CD0234A1168234B0B4013600023314A13601A4A1360304B1B78EB
:401F40009B070ED5124B1B78DB0701D5092300E00A23114A11880B43138060220C4B1A700FE0284B1B689B0601D5182200E01022154B1A6005E0064B1B78DB0601D4FFF7CC
:401F8000B3F810BD600200208C0E0640880E0640200300200C0F064030030020000F06402C030020880F0640CC0F06403C030020080306404003002060000640FFFEFFFF1E
:401FC000340300204003064068000640ED0F0000C00F064008020640240300202803002004020640FFFFFEFF8C0F06404403002040020640F3070000800F0640C80F06405D
:402000003803002064000640044B1B680F221340082BF9D0024B18607047C0460802074040020740002243088B4274D303098B425FD3030A8B4244D3030B8B4228D3030C8B
:402040008B420DD3FF22090212BA030C8B4202D31212090265D0030B8B4219D300E0090AC30B8B4201D3CB03C01A5241830B8B4201D38B03C01A5241430B8B4201D34B03DB
:40208000C01A5241030B8B4201D30B03C01A5241C30A8B4201D3CB02C01A5241830A8B4201D38B02C01A5241430A8B4201D34B02C01A5241030A8B4201D30B02C01A5241E9
:4020C000CDD2C3098B4201D3CB01C01A524183098B4201D38B01C01A524143098B4201D34B01C01A524103098B4201D30B01C01A5241C3088B4201D3CB00C01A524183087A
:402100008B4201D38B00C01A524143088B4201D34B00C01A5241411A00D20146524110467047FFE701B5002000F0F0F802BDC0460029F7D076E7704703460B437FD40022E5
:4021400043088B4274D303098B425FD3030A8B4244D3030B8B4228D3030C8B420DD3FF22090212BA030C8B4202D31212090265D0030B8B4219D300E0090AC30B8B4201D33C
:40218000CB03C01A5241830B8B4201D38B03C01A5241430B8B4201D34B03C01A5241030B8B4201D30B03C01A5241C30A8B4201D3CB02C01A5241830A8B4201D38B02C01AA9
:4021C0005241430A8B4201D34B02C01A5241030A8B4201D30B02C01A5241CDD2C3098B4201D3CB01C01A524183098B4201D38B01C01A524143098B4201D34B01C01A52416B
:4022000003098B4201D30B01C01A5241C3088B4201D3CB00C01A524183088B4201D38B00C01A524143088B4201D34B00C01A5241411A00D201465241104670475DE0CA0FE2
:4022400000D04942031000D34042534000229C4603098B422DD3030A8B4212D3FC22890112BA030A8B420CD3890192118B4208D3890192118B4204D389013AD0921100E082
:402280008909C3098B4201D3CB01C01A524183098B4201D38B01C01A524143098B4201D34B01C01A524103098B4201D30B01C01A5241C3088B4201D3CB00C01A52418308C5
:4022C0008B4201D38B00C01A5241D9D243088B4201D34B00C01A5241411A00D20146634652415B10104601D34042002B00D54942704763465B1000D3404201B5002000F0BE
:4023000005F802BD0029F8D016E770477047C046F0B5564644465F464D46F0B444024600C70F83B08846650A360EBA463DD0FF2E22D00023EC00802599469B46ED042543C9
:402340007F3E43465C025800DB0F640A000E984636D0FF2830D080230021E400DB041C437F38301A0190484642460843724E800030587A4013008746002D44D10823994669
:40238000063B9B46DDE70122FF2000241A406402C305640AD2071C431443200003B03CBC90469946A246AB46F0BD002D20D104239946033B9B46C4E7002C17D1022102E03F
:4023C000002C0AD10121321A01924A4643460A435A48920082587B409746200000F0F4FB431F76309C4040420021BAE70321B8E7280000F0E9FB431F9D4000237630464253
:4024000099469B469DE70C239946093B9B4698E780240022E403FF20B9E70024C2468B465A465346022AAED0032A7DD0012A31D1012200201A400024A9E70122101A1B28D2
:4024400056DD1A4000200024A1E78023DB031D424BD18023DB032B435C02640A3A00FF2095E76D016001854230D2019A0024013A01921B220127290064006D00002901DBEE
:40248000A84201D82D1A3C43013A002AF3D16A1E95412C4301987F300028CEDD620704D00F222240042A00D00434220103D5244A019814408030FE2800DD64E70122A40160
:4024C000640AC0B21A4062E72C00A9E72D1A1A220124CFE76B02BCD500248023DB031C436402640A4246FF2051E71C42B3D1F4E721002022C140101A8440621E94410C43D7
:40250000620704D00F222240042A00D00434620104D5012201201A40002438E70122A401640A1A40002032E78023DB031C436402640A5246FF202AE74C3800008C380000EB
:40254000FFFFFFF770B5041E28D000F03DFB9E231B1A962B0ADC9622D21A94406202520AD8B25202520AC005104370BD992B18DC9922D21A9440114A2240610704D00F2150
:402580000C40042C00D00432510103D50B4B1A409F231B1A9201520AD8B2E2E700200022DFE705222500121AB921D5402200C91A8A40541EA2412C001443DCE7FFFFFFFBB5
:4025C000F0B55F4656464D464446F0B40D0399464E002B0B87B00700924680469B46760DCC0F002E69D06D4B9E4235D05B468022DD001204430F13432B439B46C3009846D4
:40260000674B00279C460023664401934A4615035000D20F53462D0B400D914600D176E05E4A90426CD080225B0F120413435C4AED0094461D4353460022DB0060444946C5
:402640003618701C6140029017430F2F00D9AFE05448BF00C759BF465B461F4300D088E000239B469846023308270193CEE74946022A6AD0032A00D109E2012A00D0BBE18E
:4026800011400022002300259046CCB200212D030A0D12052D0B1543434A1B0515401D436D00E4076D0825434046290007B03CBC90469946A246AB46F0BD034352D05B46C3
:4026C000002B00D18AE1584600F07EFA03000B3B1C2B00DD7BE11D22D31A3A0001005D46DA4008398D4013008F402B439B46B8462E4B00279C46002360444642019385E772
:4027000052462A432CD100250023022297E752462A4321D0002D00D154E1280000F054FA03000B3B1C2B00DD46E11D21CB1A51460200D9405346083A954093400D431B4A7D
:40274000944660444042002279E7012400220C40124B0025904699E70025002301226EE703226CE700239B4698460133042701934CE703230C27019348E70023802598466A
:4027800000242D03054B81E75D464346019A6FE75D4643462100019A6AE7C046FF07000001FCFFFFCC380000FFFF0F80F30300004246120C91461A0C9446424617044A4679
:4027C0001B041B0C5A43604690464A4642431000039262461C003F0C7A437C4342440192220C9246019A5244904506D98246802040028046C24450460390100C0490484654
:402800002404240C1204121905922A0C2D042D0C68432C00824648467C4350438146200C8046574357444744BA4503D9802040028046C144380C3F04B84648442404240CDF
:4028400001900498A044404404905846000C814658460404200C8246070048465F434C464343604660436446834650464443380C8446E4186444A34203D980235B029C46A7
:40288000E34448463F04230C3F0C2404E419574668436F4384464D46504655434243380C814662444A445B44944503D9802040028446654403983F04834604983F0C844637
:4028C000E344C345804140428246100484460198674484466744A344BC46A345A4419946D44464428742BF41D4458041E144A04699459B417F424042C8440743120CBA18C3
:40290000A045A4415F423B0064422343D71843467D19DB0D6D021D435B465A02059B1A43531E9A415B46DB0D1A4343465B021343EA0107D501225C0813402343EA07029E20
:4029400013436D08574AB218002A4BDD580709D00F201840042805D0181D98429B415B42ED180300E80104D54F4A15408022D200B2184E48824200DDE7E60124DB08680716
:4029800018436D02530580462D0B5B0D0C407DE6802259461203114208D0154206D115432D0398462D0B4C46414B6FE65D4615432D032D0B3E4B69E603005546283B9D4007
:4029C0000023BCE6504600F0FFF82030A8E60300283B9F400023BB46984689E600F0F4F8203073E60124A61A382E07DD00220C4000230025904649E6029EA3E71F2E20DC1F
:402A000020222C001800921BF040944093400443581E83411C43F540630709D00F232340042B05D023001C1D9C4292415242AD182B021FD5012400220C4001230025904662
:402A400024E61F202C004042821AD440202E1CD04022961BB5402B43581E83410720234318400025002809D00F2200251A401C00042AD8D1230068076D022D0B0124DB08D6
:402A8000034398460C40002300E60025E3E780220124120315432D0398462D0B0C40044BF4E5C046FF030000FFFFFFFEFE070000FF0700000B0330B5134D1A0B4B005B0D87
:402AC000C90F0024AB4211DD104CA34210DC8024640322430E4CE41A1F2C0CDD0D48C31ADA4013005C42002900D11C00200030BD094BCC18FAE7E040084CA44663449A40BE
:402B000013000343EEE7C046FE0300001D0400003304000013040000FFFFFF7FEDFBFFFF4200120E511C4302C9B270B55D0AC40F012915DDE02189008C466D071B0B6244E9
:402B4000002128000D0D2D052B431C4D52052B40520813435B00E4075B082343190070BD002A15D1002D1FD0280000F02DF80A281DDC0B232A001B1ADA401300020015328B
:402B800095400F4A1B03121A52051B0B520DD7E7002D06D080221B0B120313436D07094ACEE7084A0023CBE700220023C8E703000B3B9D402B000025E3E7C046FFFF0F8063
:402BC00089030000FF0700001C2101231B04984201D3000C10391B0A984201D3000A08391B09984201D30009043902A2105C40187047C04604030202010101010000000056
:402C000000000000014B18687047C046D00100200E4B70B500251E000D4CE41AA410A54204D0AB00F35898470135F8E700F08AFE084B00251E00084CE41AA410A54204D0DA
:402C4000AB00F35898470135F8E770BD50390000503900005039000058390000002310B59A4203D0CC5CC4540133F9E710BD03008218934202D019700133FAE770470000C0
:402C80000EB410B59DB002A9029008610B48822488604861012040421FABC881084804CBA400006801938C8100F06EF80023029A13701DB010BC08BC03B01847FFFFFF7F0B
:402CC000D0010020F0B58E6885B007000C00039201939E4243D890238A89DB001A423ED003250969236801985B1A029363695D43EB0F5D19029B6D1001331B18AB4200D9E6
:402D00001D00530510D52900380000F037FB061E14D0029A2169FFF7A1FFA289194B134080221343A38112E02A00380000F086FB061E0CD12169380000F0D4FA0C2340221D
:402D400001203B60A38940421343A38117E0029B2661F61826606561019EED1AA560019BB34200D21E0032000399206800F0A5FA0020A3689B1BA36023689E19266005B088
:402D8000F0BDC0467FFBFFFFF0B59FB0029005938B890F0016001B0610D50B69002B0DD1402100F0EBFA38603861002804D10C23029A01381360D8E040237B61002306AD66
:402DC0006B6120336B761033AB7634002378002B03D1A31B049312D003E0252BF9D00134F4E7A31B320039000298FFF76BFF431C00D1B4E06A69049B944663446B6123781D
:402E0000002B00D1ABE00122002352426A6002A95432521801342B60EB60AB601370AB65534E21780522300000F03CFA002807D00123801B83402A68013413432B60EFE76D
:402E40002B68DA0604D55322202102A8121811701A0704D553222B2102A81218117022782A2A03D0099B00200A210EE0059A111D12680591002A01DB099204E05242EA600D
:402E8000022213432B6001340BE02278303A092A04D84B4301349B180120F6E7002800D0099323782E2B1ED163782A2B0AD1059B02341A1D1B680592002B01DA01235B42F6
:402EC000079310E000230A201A0001346B6021783039092904D84243013452180123F6E7002B00D00792234E21780322300000F0D9F9002806D04023801B83402A68013471
:402F000013432B60217806221B48661C297600F0C9F9002812D0194B002B06D10722059B073393430833059314E005AB00933A00134B2900029800E000BF07E005AB009342
:402F40003A000F4B2900029800F08AF80390039B013304D06B69039A9B186B6135E7BB890B985B0601D5012040421FB0F0BDC0460E3900001439000018390000000000001B
:402F8000C52C0000F7B5170001938A680B6900900C00934200DA130022003B6043321278002A01D001333B6023689B0602D53B6802333B60062523681D401ED0230043336F
:402FC0001B785A1E9341226892061CD53020E1184331087021005A1C45310978A2184332023311700FE022000123193201990098089EB047431C0ED00135E3683A689B1AD3
:403000009D42F0DBDAE72200019943320098089DA847431C02D10120404220E006232068E1683A6803400025042B03D18D1AEB43DB171D40A3682269934201DD9B1AED18C5
:403040000027BD420AD0220001231A3201990098089EB047431CDED00137F2E70020FEBDF0B58BB006920A0043320793059004920A7E0C00109B6E2A00D1ABE011D8632A91
:4030800022D009D8002A00D1B5E0582A00D0C5E045310A70814A4FE0642A1DD0692A1BD0BCE0732A00D1AAE009D86F2A29D0702A00D0B3E0202209680A43226037E0752A97
:4030C0001FD0782A33D0A9E00E001A684236111D196013683370A4E021681A68080606D4490604D5111D19600023D55E02E0111D19601568002D3BDA2D23049A6D421370E2
:4031000036E021681A68080606D4490604D51568111D1960ADB202E0111D196015685F4B227E039308276F2A1DD00A271BE022007821453211705A4A19680392081D2268F8
:4031400018600D68100602D4500600D5ADB2D30702D520231A4322601027002D03D1202322689A4322602300002243331A7002E00A274A4B03936368A360002B09DB04222F
:40318000216891432160002D05D1049E002B11D07BE0002D79D0049E28003900FEF7C8FF039B013E5B5C280033703900FEF73AFF051EF1D1082F09D12368DB0706D5636821
:4031C0002269934202DC3023013E3370049B9B1B23612BE009681A68080607D4490605D5111D19601368A28A1A8004E0111D1960136862691A600023049E236116E01A687F
:40320000111D1960166800216268300000F04AF8002801D0801B6060636803E0260042363270012323610023049A1370079B09AA00932100069B0598FFF7A4FE431C02D1DD
:403240000120404227E02369320006990598079DA847431CF4D0236800259B070FD4099BE068984217DA180015E022000123193206990598079EB047431CE1D00135E36801
:40328000099A9B1A9D42F0DBE9E72600039B42361B7833708EE70BB0F0BDC0461F39000030390000C9B28218904204D003788B4202D00130F8E70020704710B5884202D900
:4032C0008B18984201D3002305E09B1A013A08D3995C8154FAE7934203D0CC5CC4540133F9E710BD70B50500002944D00C1F2368002B00DAE418280000F0D8F81E4A13684D
:403300001100002B02D16360146031E0A3420DD92268A018834203D118685B688218226063600C6024E0A24203D813005A68002AF9D11E689819A0420BD1216871185818FF
:403340001960824214D110685268411819605A600EE0A04202D90C232B6009E021686018824203D1106852684118216062605C60280000F09CF870BD90020020032370B526
:40338000CD1C9D43083506000C2D01D20C2501E0002D01DBA94202D90C23336048E0300000F084F8234B1C681A002100002913D00B685B1B0DD40B2B02D90B60CC181EE02D
:4033C0008C4202D1636813601AE04B6863600C0016E00C004968E9E7174C2368002B03D1300000F051F820602900300000F04CF8431C18D00323C41C9C43A0420DD125601B
:40340000300000F054F8200007220B30231D9043C31A0ED05A42E2500BE0211A300000F033F8431CEBD10C233000336000F03FF8002070BD900200208C020020F8B50600FB
:403440000C001500002904D11100FFF797FF040018E0002A03D1FFF745FF2C0012E000F027F885420ED929003000FFF787FF071E07D021002A00FFF7F1FB21003000FFF73C
:4034800031FF3C002000F8BD002370B5064C050008002360FDF786FC431C03D12368002B00D02B6070BDC04648030020704770470B1F1A68101F002A04DA891804390B68A7
:4034C000D01804387047000000000000F003000030040000520400004004000064040000740400008604000022050000D4040000EE040000E0040000FC04000008050000E4
:40350000160500000001010001000100535441525400000025642020200A0000360A0000FA090000180A0000220A0000040A00000E0A00002C0A0000CE0A0000720A0000AA
:40354000A00A0000B00A0000800A0000900A0000C00A00004552524F525F575249544538000000004552524F525F5245414438004552524F525F52454144313600000000A4
:4035800050524F424C454D5F524541445F4944002575000072202564207C2067202564207C20622025640A0052454400475245454E000000424C5545000000004F52414E9D
:4035C0004745000042524F574E00000059454C4C4F5700004E4F4E45000000007072657061726174696F6E20256400006E6F6E652025640073657474696E677320256400EA
:40360000534F5300636865636B202564000000006D696E2072202564207C2067202564207C206220256400006D61782072202564207C2067202564207C20622025640000C8
:4036400000300F40000400400F40000403030A02180319012E012F04320333013502360337045804590B5B045F018206842D865287048A158B088E4D931099019B1E9E2D8E
:40368000A903AA2DAD02AF01B003B110B204B303B418B508B660B704BAA2BF51D809D909DB04DF01001005550B080E0110021720181019801A011D551F04200121282540EB
:4036C000262027602A802D802F043120372138013E145D8068026E146F017B807F088508C0F2C282C441CA38CCA4CE61D610DE21000E02900403060408010AFC1701180A7C
:403700001A541C241E0A28042AFA30E0320733013480361839203AAA3B08580459045F01800582028303840E86908EFE8F01900C92529422960C97079EFEA402A6FCA801F5
:40374000AAFAB080B102B218B4E0B501B607B704B908BAAABBA2D809D909DF01004003A0050507080A500B010E051220132017101A501BA01D051E051F0820402228232191
:4037800027183208370838403B017B08A788AE80B140B220B740C07DC2CDC446CC42CE09DE04E628EA10EE241304528056805F226F018701C410D460D6A0DA80E2406302B5
:4037C00087018A809E80AA80AF04B320B702D640E610E840EE2018201A081C801F2050106720860488409320A720AB20B310C60FD404D801E604E804010110012C300F40DE
:4038000026310F4036320F4026330F400B400F400C410F4011430F4002600F40030405060708090A0B0C0E0F101112131415161718191B1C1D1E1F202122232526272829EA
:403840002A2B2E2F30313233343500006224000086230000442400001C2400004424000010240000442400001C2400008623000086230000102400001C240000C82400009A
:40388000C8240000C82400004A2400008623000086230000302400001A2400003024000010240000302400001A2400008623000086230000102400001A240000C824000014
:4038C000C8240000C8240000D4240000B027000070260000702600006E26000088270000882700007A2700006E260000882700007A270000882700006E2600009027000084
:403900009027000090270000902900004300232D302B2000686C4C00656667454647003031323334353637383941424344454600303132333435363738396162636465662A
:4039400000000000F8B5C046F8BC08BC9E4670478D0200001D0E0000F8B5C046F8BC08BC9E4670476502000078390000C0000020180100007801000000000000010101076D
:403980000707070707000000FF000000FF000000FF000000FF000000FF000000FF000000FF000000FF000000FF000000FF000000FF000000FF000000FF000000FF000000F2
:4039C000FF000000FF000000FF000000FF000000FF00000000FF00000000FF00FF820300FF7E0000754C0000614349007B3D37006F4E3200335B6600505944006C493D006E
:403A0000FF000000FF000000FF00000050030020010000000000E02EC05D00001800000000366E010404040000000000000000000000000000000000000000000000000021
:403A400000000000000000000C3900000000000000000000000000000000000000000000000000000000000000000000000000000000000000000000000000000000000001
:403A80000000000000000000700100200000000000000000000000000000000000000000000000000000000000000000000000000000000000000000000000000000000075
:403AC00000000000000000000000000000000000000000000000000000000000000000000000000000000000000000000000000000000000000000000000000000000000C6
:403B00000000000000000000000000000000000000000000000000000000000000000000000000000000000000000000000000000000000000000000000000000000000085
:403B40000000000000000000000000000000000000000000000000000000000000000000000000000000000000000000000000000000000000000000000000000000000045
:403B80000000000000000000000000000000000000000000000000000000000000000000000000000000000000000000000000000000000000000000000000000000000005
:0200000490303A
:020000006AB8DC
:0200000490402A
:200000000000000000000000000000000000000000000000000000000000000000000000E0
:0200000490501A
:0C000000000204C81193110104DA7C4BCB
:0200000490600A
:0100000001FE
:00000001FF